:020000040800F2
:1000000000000220C1B80008B1AB0008BFAB000877
:10001000C5AB0008CBAB0008D1AB00080000000066
:10002000000000000000000000000000D7AB000846
:10003000E5AB000800000000F3AB000801AC0008CD
:1000400011B9000811B9000811B9000811B9000868
:1000500011B9000811B9000811B9000811B9000858
:1000600011B9000811B9000811B9000811B9000848
:1000700011B9000811B9000811B9000811B9000838
:1000800011B9000811B9000811B9000811B9000828
:1000900011B9000811B9000811B9000811B9000818
:1000A00011B9000811B9000811B9000811B9000808
:1000B00011B9000811B9000811B9000811B90008F8
:1000C00011B9000811B9000811B9000811B90008E8
:1000D00011B9000811B9000811B9000811B90008D8
:1000E00011B9000811B900080000000011B900089A
:1000F00011B9000811B9000811B9000811B90008B8
:1001000011B900082DAA000811B9000811B900089A
:1001100011B9000811B9000811B9000811B9000897
:1001200011B9000811B9000811B9000811B9000887
:1001300011B9000811B9000811B9000811B9000877
:1001400000000000000000000000000000000000AF
:1001500011B9000811B9000811B9000811B9000857
:1001600011B9000811B9000811B9000811B9000847
:1001700011B9000811B9000811B900080000000009
:1001800011B9000811B9000811B9000811B9000827
:1001900011B9000811B9000811B9000811B9000817
:1001A00011B9000811B9000811B9000811B9000807
:1001B00011B9000811B9000811B9000811B90008F7
:1001C00011B9000811B900080DAC000821AC0008F5
:1001D00011B9000835AC000811B9000811B90008C0
:1001E00011B9000811B9000811B9000811B90008C7
:1001F00011B9000811B9000811B9000811B90008B7
:1002000011B9000811B9000811B9000811B90008A6
:1002100011B9000811B9000811B9000811B9000896
:1002200011B9000811B9000811B900080000000058
:1002300011B9000811B900080000000011B9000848
:1002400011B9000811B9000811B9000811B9000866
:1002500011B9000811B9000811B9000811B9000856
:1002600011B9000811B9000811B9000811B9000846
:1002700011B9000811B9000811B900080000000008
:1002800011B900080000000011B9000800000000CA
:080290000000000011B9000894
:1002A00010B5054C237833B9044B13B10448AFF3B0
:1002B00000800123237010BD7001002000000000A9
:1002C000D0C7000808B5034B1BB103490348AFF37F
:1002D000008008BD0000000074010020D0C70008A5
:1002E00053B94AB9002908BF00281CBF4FF0FF319D
:1002F0004FF0FF3000F072B9ADF1080C6DE904CE9B
:1003000000F006F8DDF804E0DDE9022304B07047F0
:100310002DE9F047089E04468846002B4BD18A42BF
:10032000154667D9B2FA82F24AB1C2F1200701FA42
:1003300002F320FA07F7954047EA030894404FEA92
:10034000154E230CB8FBFEF71FFA85FC0EFB178831
:1003500043EA084307FB0CF1994209D9EB1807F16E
:10036000FF3080F01B81994240F21881023F2B44FC
:100370005B1AA4B2B3FBFEF00EFB103344EA034455
:1003800000FB0CFCA44509D92C1900F1FF3380F0C7
:100390000781A44540F2048102382C4440EA07401A
:1003A000A4EB0C0400271EB1D4400023C6E900438F
:1003B0003946BDE8F0878B4209D9002E00F0EB806A
:1003C0000027C6E9000138463946BDE8F087B3FA90
:1003D00083F7002F47D18B4202D3824200F2FA808A
:1003E000841A61EB030301209846002EE0D0C6E991
:1003F0000048DDE702B9FFDEB2FA82F2002A40F0DF
:100400008F80491B4FEA154E1FFA85F80127B1FB73
:10041000FEFC230C0EFB1C1143EA014308FB0CF10C
:10042000994207D9EB180CF1FF3002D2994200F241
:10043000CD808446591AA3B2B1FBFEF00EFB101416
:1004400043EA044408FB00F8A04507D92C1900F141
:10045000FF3302D2A04500F2B6801846A4EB080490
:1004600040EA0C409FE7C7F1200CBB4022FA0CFE8B
:100470004EEA030E01FA07F420FA0CF521FA0CF308
:100480004FEA1E482543B3FBF8F92C0C08FB19333F
:100490001FFA8EFA44EA034309FB0AF49C4202FA6B
:1004A00007F200FA07F10BD91EEB030309F1FF3045
:1004B00080F087809C4240F28480A9F10209734455
:1004C0001B1BADB2B3FBF8F008FB103345EA034445
:1004D00000FB0AFAA24508D91EEB040400F1FF3321
:1004E0006BD2A24569D90238744440EA0940A0FBA6
:1004F0000289A4EB0A044C45C2464B4654D351D062
:10050000002E69D0B1EB0A0564EB030404FA0CFC7D
:10051000FD40FC404CEA0505C6E90054002747E7CA
:10052000C2F1200320FA03F7954001FA02F021FA04
:1005300003F34FEA154E3843010CB3FBFEF71FFAE5
:1005400085F80EFB173341EA034107FB08F38B42A2
:1005500004FA02F407D9691807F1FF3C2FD28B4245
:100560002DD9023F2944CB1A81B2B3FBFEF00EFB1A
:10057000103341EA034100FB08F38B4207D96918A5
:1005800000F1FF3C17D28B4215D902382944C91A11
:1005900040EA07473BE73746304609E70746E7E6C4
:1005A0001846FBE64145ABD2B8EB020A69EB0E02F6
:1005B00001381346A4E76046E9E7184695E7674621
:1005C000D1E781467CE702382C4447E7ACF1020CC6
:1005D0002B442FE7384608E73746E9E6704700BF67
:1005E00001F0FF01102A2BDB10F0070F08D010F8E4
:1005F000013B013A8B422DD010F0070F42B3F6D1E8
:10060000F0B441EA012141EA014122F007047FF000
:1006100000070023F0E80256083C85EA010586EA57
:10062000010685FA47F5A3FA87F586FA47F6A5FA93
:1006300087F68EB9EED1F0BC01F0FF0102F007029F
:1006400032B110F8013B013A83EA010313B1F8D14A
:100650000020704701387047002D06BF354603382B
:10066000073815F0010F07D1013015F4807F02BF64
:10067000013015F4C03F0130F0BC0138704700BFB5
:1006800080B500AF032000F04FF9002000F00AF819
:100690000346002B01D0012302E00AF06FFA002389
:1006A000184680BD80B582B000AF7860124B1A68E2
:1006B000124B1B7819464FF47A73B3FBF1F3B2FB7C
:1006C000F3F3184600F063F90346002B01D0012331
:1006D0000EE07B680F2B0AD8002279684FF0FF30BC
:1006E00000F02DF9064A7B681360002300E0012327
:1006F00018460837BD4680BDB00000200400002029
:100700000000002080B400AF064B1B781A46064B51
:100710001B681344044A136000BFBD465DF8047BA8
:10072000704700BF040000208C01002080B400AF9F
:10073000034B1B681846BD465DF8047B704700BF3D
:100740008C01002080B584B000AF7860FFF7EEFF29
:10075000B8607B68FB60FB68B3F1FF3F05D0094BD5
:100760001B781A46FB681344FB6000BFFFF7DEFFEF
:100770000246BB68D31AFA689A42F7D800BF10370E
:10078000BD4680BD0400002080B485B000AF786015
:100790007B6803F00703FB600B4BDB68BB60BA6848
:1007A0004FF6FF031340BB60FB681A02BB681A4395
:1007B000064B1343BB60044ABB68D36000BF1437C9
:1007C000BD465DF8047B704700ED00E00000FA05CF
:1007D00080B400AF044BDB681B0A03F00703184624
:1007E000BD465DF8047B704700ED00E080B483B047
:1007F00000AF0346FB80B7F90630002B0BDBFB880C
:1008000003F01F020749B7F906305B09012000FA1F
:1008100002F241F8232000BF0C37BD465DF8047B8F
:10082000704700BF00E100E080B483B000AF034632
:100830003960FB80B7F90630002B0ADB3B68DAB27F
:100840000C49B7F906301201D2B20B4483F80023E9
:100850000AE03B68DAB20849FB8803F00F03043B67
:100860001201D2B20B441A7600BF0C37BD465DF8B8
:10087000047B704700E100E000ED00E080B489B047
:1008800000AFF860B9607A60FB6803F00703FB61B2
:10089000FB69C3F10703042B28BF0423BB61FB6979
:1008A0000433062B02D9FB69033B00E000237B6184
:1008B0004FF0FF32BB6902FA03F3DA43BB681A4018
:1008C0007B699A404FF0FF317B6901FA03F3D9430A
:1008D0007B680B40134318462437BD465DF8047B04
:1008E0007047000080B582B000AF78607B68013B44
:1008F000B3F1807F01D301230FE00A4A7B68013BFB
:1009000053600F214FF0FF30FFF78EFF054B0022A1
:100910009A60044B07221A60002318460837BD4628
:1009200080BD00BF10E000E080B582B000AF78600D
:100930007868FFF729FF00BF0837BD4680BD80B546
:1009400086B000AF0346B9607A60FB81FFF740FFD5
:1009500078617A68B9687869FFF790FF0246B7F95D
:100960000E3011461846FFF75FFF00BF1837BD462F
:1009700080BD80B582B000AF0346FB80B7F906307A
:100980001846FFF733FF00BF0837BD4680BD80B56E
:1009900082B000AF78607868FFF7A4FF034618467E
:1009A0000837BD4680BD000080B400AFBFF35F8F45
:1009B000064B5B6A054A23F480335362044B0022E2
:1009C0005A6000BFBD465DF8047B704700ED00E053
:1009D00090ED00E080B483B000AF78600A4A7B6895
:1009E00043F001035360094B5B6A084A43F48033C8
:1009F0005362BFF34F8FBFF36F8F00BF0C37BD46FD
:100A00005DF8047B704700BF90ED00E000ED00E072
:100A100080B483B000AF78607B685A781D4B9A60D1
:100A20007B681B78002B29D01A4A7B685B68D360EF
:100A30007B681B7B1A077B68DB7A1B061A437B6883
:100A40009B7ADB041A437B685B7B9B041A437B68BD
:100A50009B7B5B041A437B68DB7B1B041A437B682C
:100A60005B7A1B021A437B681B7A5B0013437A682C
:100A700012781146074A0B43136105E0054B00222B
:100A8000DA60044B00221A6100BF0C37BD465DF8E6
:100A9000047B704790ED00E080B489B000AF7860CF
:100AA00039600023FB6100237B6100233B6100234D
:100AB000BB618B4BFB600023FB6196E10122FB696C
:100AC00002FA03F37B613B681B687A6913403B6160
:100AD0003A697B699A4240F085813B685B68022BEA
:100AE00003D03B685B68122B23D1FB69DA087B6873
:100AF000083253F82230BB61FB6903F007039B0007
:100B00000F2202FA03F3DB43BA691340BB613B686F
:100B10001A69FB6903F007039B0002FA03F3BA6941
:100B20001343BB61FB69DA087B680832B96943F893
:100B300022107B681B68BB61FB695B00032202FA21
:100B400003F3DB43BA691340BB613B685B6803F0A6
:100B50000302FB695B0002FA03F3BA691343BB614A
:100B60007B68BA691A603B685B68012B0BD03B68F5
:100B70005B68022B07D03B685B68112B03D03B6896
:100B80005B68122B30D17B689B68BB61FB695B00A3
:100B9000032202FA03F3DB43BA691340BB613B68EB
:100BA000DA68FB695B0002FA03F3BA691343BB61BD
:100BB0007B68BA699A607B685B68BB610122FB69EC
:100BC00002FA03F3DB43BA691340BB613B685B681D
:100BD0001B0903F00102FB6902FA03F3BA6913432C
:100BE000BB617B68BA695A607B68DB68BB61FB6983
:100BF0005B00032202FA03F3DB43BA691340BB61D3
:100C00003B689A68FB695B0002FA03F3BA69134315
:100C1000BB617B68BA69DA603B685B6803F080534C
:100C2000002B00F0DF802F4BD3F8F4302D4A43F037
:100C30000203C2F8F4302B4BD3F8F43003F0020374
:100C4000BB60BB68284AFB699B08023352F823301B
:100C5000BB61FB6903F003039B000F2202FA03F35D
:100C6000DB43BA691340BB617B68204A934251D091
:100C70007B681F4A934231D07B681E4A93422BD037
:100C80007B681D4A934225D07B681C4A93421FD043
:100C90007B681B4A934219D07B681A4A934213D04F
:100CA0007B68194A93420DD07B68184A934207D05B
:100CB0007B68174A934201D109232CE00A232AE0DA
:100CC000082328E0072326E0062324E0052322E06A
:100CD000042320E003231EE002231CE001231AE08A
:100CE00080000058004402580004005800000258D8
:100CF0000004025800080258000C02580010025864
:100D00000014025800180258001C02580020025813
:100D1000002402580023FA6902F003029200934073
:100D2000BA691343BB613649FB699B080233BA6950
:100D300041F82320FB681B68BB613B69DB43BA6950
:100D40001340BB613B685B6803F48033002B03D026
:100D5000BA693B691343BB61FB68BA691A60FB68F7
:100D60005B68BB613B69DB43BA691340BB613B68AD
:100D70005B6803F40033002B03D0BA693B6913436B
:100D8000BB61FB68BA695A604FF0B0431B68BB6136
:100D90003B69DB43BA691340BB613B685B6803F4A2
:100DA0008013002B03D0BA693B691343BB614FF03A
:100DB000B042BB6913604FF0B0435B68BB613B69F5
:100DC000DB43BA691340BB613B685B6803F4001303
:100DD000002B03D0BA693B691343BB614FF0B042AB
:100DE000BB695360FB690133FB61FB690F2B7FF625
:100DF00065AE00BF2437BD465DF8047B704700BF79
:100E00000004005880B483B000AF78600B467B804C
:100E100013467B707B78002B03D07B687A881A831B
:100E200002E07B687A885A8300BF0C37BD465DF8C4
:100E3000047B704780B483B000AF78600B467B8042
:100E40007B685A697B885A407B685A6100BF0C37BF
:100E5000BD465DF8047B7047F0B58FB00AAF78608F
:100E60000023FB607B68002B01D1012305E17B6837
:100E7000032283F8B923786809F0E0FF7B681B68D8
:100E8000184604F016FD7B681B683B607E686D4663
:100E900006F110040FCC0FC50FCC0FC594E803006A
:100EA00085E80300331D0ECB386804F09FFC7B6897
:100EB0001B680021184604F00DFD0023FB604CE088
:100EC0007968FA681346DB009B1A9B000B443933A0
:100ED00001221A70FB68D8B27968FA681346DB0001
:100EE0009B1A9B000B44383302461A70FB6898B279
:100EF0007968FA681346DB009B1A9B000B443E336B
:100F000002461A807968FA681346DB009B1A9B0038
:100F10000B443B3300221A707968FA681346DB00F1
:100F20009B1A9B000B44403300221A607968FA68D0
:100F30001346DB009B1A9B000B44443300221A60CB
:100F40007968FA681346DB009B1A9B000B444C330C
:100F500000221A60FB680133FB60FB680E2BAFD9DF
:100F60000023FB605AE07968FA681346DB009B1A9D
:100F70009B000B4403F2F91300221A70FB68D8B2ED
:100F80007968FA681346DB009B1A9B000B4403F553
:100F9000FC7302461A70FB6898B27968FA681346C7
:100FA000DB009B1A9B000B443E3302461A80796893
:100FB000FA681346DB009B1A9B000B4403F2FB13F9
:100FC00000221A707968FA681346DB009B1A9B00AE
:100FD0000B4403F5007300221A607968FA6813461F
:100FE000DB009B1A9B000B4403F5017300221A607F
:100FF0007968FA681346DB009B1A9B000B4403F5E3
:10100000037300221A607B681A68FB6840339B00F8
:10101000134400225A60FB680133FB60FB680E2B0F
:10102000A1D97B681B683B607E686D4606F11004A1
:101030000FCC0FC50FCC0FC594E8030085E8030063
:10104000331D0ECB386804F06DFC7B68012283F8F9
:10105000B9237B689B6A012B02D1786801F050F8B4
:101060007B685B6A012B02D1786801F06DF87B68C0
:101070001B68184605F020FC002318461437BD46AF
:10108000F0BD80B582B000AF78607B681B68184601
:1010900005F0FCFB7B681B68184604F0F9FB002395
:1010A00018460837BD4680BD80B58CB000AF78606B
:1010B0007B681B683B620023FB620023BB6200234A
:1010C000FB6100237B620023BB6100237B61002363
:1010D0003B619D4BFB607B681B68184605F08DFCEF
:1010E0000346002B40F0C3847B681B68184605F05C
:1010F000F9FB0346002B00F0B9847B681B68184697
:1011000005F0F0FB034603F00203022B03D17B68DA
:101110001B6802225A617B681B68184605F0E2FBD7
:10112000034603F40023B3F5002F40F0F7800023BB
:101130007B627B681B68184605F0E9FBB862E9E052
:10114000BB6A03F00103002B00F0DE807B681B68A4
:101150007A6AD2B21146184605F009FCF861FB69BB
:1011600003F00103002B00F087807B6A5A013B6A81
:10117000134403F530631A46012393603B6A1B6CEA
:10118000724A934215D97B681B69012B11D13B6AC6
:1011900003F530639B6803F40043002B09D07B6A9E
:1011A0005A013B6A134403F530631A464FF4004377
:1011B00093607B681B69012B3CD179687A6A13467E
:1011C000DB009B1A9B000B4403F500731A687B6AD3
:1011D00059013B6A0B4403F530631B69C3F31203E7
:1011E000D11A78687A6A1346DB009B1A9B00034485
:1011F00003F50473196079687A6A1346DB009B1A59
:101200009B000B4403F50173196878687A6A1346EA
:10121000DB009B1A9B00034403F500731B68194411
:1012200078687A6A1346DB009B1A9B00034403F537
:10123000017319607B6ADBB21946786809F05CFEBD
:101240007B681B69012B17D17B6A002B14D179684D
:101250007A6A1346DB009B1A9B000B4403F5037369
:101260001B68002B08D17B6818687B6803F56F73D7
:101270001A46012105F004FCFB6903F00803002B6A
:1012800026D03B6A1B6C314A934215D97B681B6997
:10129000012B11D13B6A03F530639B6803F40043D3
:1012A000002B09D07B6A5A013B6A134403F5306373
:1012B0001A464FF400439360786809F00BFE7B6A8E
:1012C0005A013B6A134403F530631A4608239360BE
:1012D000FB6903F01003002B08D07B6A5A013B6ABC
:1012E000134403F530631A4610239360FB6903F03F
:1012F0002003002B08D07B6A5A013B6A134403F594
:1013000030631A46202393607B6A01337B62BB6A99
:101310005B08BB62BB6A002B7FF412AF7B681B6863
:10132000184605F0DFFA034603F48023B3F5802F57
:1013300040F0C7807B681B68184605F000FBB86268
:1013400000237B62B9E000BF0084D7170931544FF6
:10135000BB6A03F00103002B00F0A9807B681B68C7
:101360007A6AD2B21146184605F01DFBF861FB6996
:1013700003F00103002B59D001227B6A02FA03F328
:10138000BB613B6A03F500635A6BBB69DB43396A97
:1013900001F5006113404B637B6A5A013B6A1344B9
:1013A00003F510631A46012393607B681B69012BC8
:1013B0001BD179687A6A1346DB009B1A9B000B44A9
:1013C0004433196878687A6A1346DB009B1A9B00DD
:1013D000034440331B68194478687A6A1346DB007B
:1013E0009B1A9B000344443319607B6ADBB21946A5
:1013F000786809F09CFD7B681B69012B16D17B6A1C
:10140000002B13D179687A6A1346DB009B1A9B0084
:101410000B444C331B68002B08D17B6818687B6831
:1014200003F56F731A46012105F02AFBFB6903F0EF
:101430000803002B08D07B6A5A013B6A134403F56A
:1014400010631A4608239360FB6903F01003002B16
:1014500008D07B6A5A013B6A134403F510631A46AD
:1014600010239360FB6903F04003002B08D07B6AD4
:101470005A013B6A134403F510631A4640239360F4
:10148000FB6903F00203002B08D07B6A5A013B6A18
:10149000134403F510631A4602239360FB6903F0BB
:1014A0008003002B03D0796A786800F041FD7B6AE5
:1014B00001337B62BB6A5B08BB62BB6A002B7FF4B3
:1014C00047AF7B681B68184605F00CFA034603F02B
:1014D0000043B3F1004F1FD13B6A03F500635B6823
:1014E0003A6A02F5006223F0010353607B6893F8C7
:1014F000EC33012B08D17B68002283F8EC23002118
:10150000786800F03FFE02E0786809F087FD7B68AC
:101510001B684FF000425A617B681B68184605F053
:10152000E1F9034603F40063B3F5006F0FD13B6AA2
:1015300003F500639B6803F00103012B02D1786877
:1015400009F046FD7B681B684FF400625A617B68B6
:101550001B68184605F0C6F9034603F00063B3F1B3
:10156000006F1ED17B681B684FF000625A617B6878
:1015700093F8EC33002B11D17B68012283F8EC2324
:101580007B681B685B6D9B0803F00F027B68C3F8E8
:10159000F0230121786800F0F5FD02E0786809F099
:1015A00017FD7B681B68184605F09CF9034603F499
:1015B0008053B3F5805F40F087803B6A03F500639A
:1015C0005B683A6A02F5006223F0010353607B68AE
:1015D0001B681021184604F0E3FA0023FB6214E0B4
:1015E000FB6A5A013B6A134403F510631A46FF2352
:1015F0009360FB6A5A013B6A134403F530631A4651
:10160000FF239360FB6A0133FB627B685B68FA6AC5
:101610009A42E5D33B6A03F500631A464FF0FF3365
:1016200093613B6A03F50063DB693A6A02F5006285
:1016300043F00113D3617B681B6B002B16D03B6A10
:1016400003F50063D3F884303A6A02F5006243F090
:101650000B03C2F884303B6A03F500635B6C3A6AA3
:1016600002F5006243F00B03536413E03B6A03F599
:1016700000635B693A6A02F5006243F00B03536151
:101680003B6A03F500631B693A6A02F5006243F0A6
:101690000B0313613B6A03F500631B683A6A02F5AA
:1016A000006223F4FE6313607B6818687B681B6923
:1016B000D9B27B6803F56F731A4605F0E1F97B68D0
:1016C0001B684FF480525A617B681B68184605F00E
:1016D00009F9034603F40053B3F5005F40F0D780E7
:1016E0007B681B68184605F097F97B681B68DA6809
:1016F0007B681B6822F47052DA607B681B681846AE
:1017000004F0ADFA0346002B0FD17B680022DA60AB
:101710007B684FF400725A617B681B68DA687B68EB
:101720001B6842F41052DA60A9E07B680322DA6099
:101730007B6840225A6101F095FBF860FB687A4AA9
:1017400093420CD9FB68794A934208D87B681B689E
:10175000DA687B681B6842F47052DA608FE0FB68DD
:10176000724A93420CD9FB68714A934208D87B684D
:101770001B68DA687B681B6842F46052DA607EE0BE
:10178000FB686B4A93420CD9FB686A4A934208D8BB
:101790007B681B68DA687B681B6842F45052DA6029
:1017A0006DE0FB68634A93420CD9FB68624A93423E
:1017B00008D87B681B68DA687B681B6842F4405273
:1017C000DA605CE0FB685C4A93420CD9FB685B4AD8
:1017D000934208D87B681B68DA687B681B6842F410
:1017E0003052DA604BE0FB68544A93420CD9FB68F4
:1017F000534A934208D87B681B68DA687B681B6889
:1018000042F42052DA603AE0FB684D4A93420CD928
:10181000FB684C4A934208D87B681B68DA687B688F
:101820001B6842F41052DA6029E0FB68454A934293
:101830000CD9FB68444A934208D87B681B68DA6875
:101840007B681B6842F40052DA6018E0FB683E4A8D
:1018500093420CD9FB683D4A934208D87B681B68C9
:10186000DA687B681B6842F4E052DA6007E07B6864
:101870001B68DA687B681B6842F4C052DA607868DB
:1018800009F07DFB7B681B684FF400525A617B684E
:101890001B68184605F026F8034603F01003102BCA
:1018A00075D17B681B689A697B681B6822F01002FF
:1018B0009A613B6A1B6A7B617B6903F00F021346E6
:1018C000DB009B1A9B0003F5FC737A6813443B61B1
:1018D0007B695B0C03F00F03022B39D17A6947F661
:1018E000F0731340002B4AD03B69D9687B691B0910
:1018F0009BB2C3F30A039BB21A46386A04F0A2FEF5
:101900003B69DA687B691B09C3F30A031A443B6924
:10191000DA603B699A697B691B09C3F30A031A44BD
:101920003B699A612BE000BFBFACD800BFE1E40087
:10193000FF23F4007F7306019F491A01FF2C310138
:101940003FA44C01FF356E011FABA601FF47E80124
:101950007B695B0C03F00F03062B10D17B6803F54A
:101960006F7308221946386A04F06CFE3B699A6965
:101970007B691B09C3F30A031A443B699A617B68BC
:101980001B689A697B681B6842F010029A617B6849
:101990001B68184604F0A6FF034603F00803082B53
:1019A00006D1786809F0DDFA7B681B6808225A6165
:1019B0007B681B68184604F095FF034603F4801308
:1019C000B3F5801F0AD17B6ADBB21946786809F04B
:1019D00045FB7B681B684FF480125A617B681B686B
:1019E000184604F07FFF034603F40013B3F5001F0D
:1019F0000AD17B6ADBB21946786809F01DFB7B6867
:101A00001B684FF400125A617B681B68184604F08B
:101A100069FF034603F08043B3F1804F07D1786834
:101A200009F02EFB7B681B684FF080425A617B688F
:101A30001B68184604F056FF034603F00403042B0A
:101A400015D17B681B685B687B617B6903F00403CD
:101A5000002B02D0786809F021FB7B681B6859686D
:101A60007B681B687A690A435A6000E000BF303720
:101A7000BD4680BD80B582B000AF78600B46FB707C
:101A80007B6893F8B833012B01D102230FE07B6808
:101A9000012283F8B8237B681B68FA781146184640
:101AA00004F0D0FE7B68002283F8B8230023184698
:101AB0000837BD4680BD80B584B000AF7860084669
:101AC00011461A460346FB700B463B801346BB701B
:101AD0000023FB720023FB6097F90330002B0BDA25
:101AE000FB7803F07F021346DB009B1A9B00383320
:101AF0007A681344FB600BE0FB7803F07F02134627
:101B0000DB009B1A9B0003F5FC737A681344FB60AF
:101B1000FB7803F07F03DAB2FB681A7097F90330A1
:101B2000DBB2DB09DBB21A46FB685A703A88FB6805
:101B30009A60FB68BA78DA70FB685B78002B04D097
:101B4000FB681B789AB2FB68DA80BB78022B02D163
:101B5000FB6800221A717B6893F8B833012B01D11E
:101B600002230EE07B68012283F8B8237B681B68A0
:101B7000F968184604F0A8F87B68002283F8B823B7
:101B8000FB7A18461037BD4680BD80B584B000AFE3
:101B900078600B46FB700023FB6097F90330002B45
:101BA0000BDAFB7803F07F021346DB009B1A9B00E5
:101BB00038337A681344FB600BE0FB7803F07F0254
:101BC0001346DB009B1A9B0003F5FC737A681344F1
:101BD000FB60FB7803F07F03DAB2FB681A7097F9B9
:101BE0000330DBB2DB09DBB21A46FB685A707B6854
:101BF00093F8B833012B01D102230EE07B68012258
:101C000083F8B8237B681B68F968184604F0E2F88B
:101C10007B68002283F8B823002318461037BD469E
:101C200080BD80B586B000AFF8607A603B600B463F
:101C3000FB7200237B61FB7A03F07F021346DB001B
:101C40009B1A9B0003F5FC73FA6813447B617B6964
:101C50007A68DA607B693A685A617B6900229A6126
:101C60007B6900225A70FB7A03F07F03DAB27B694A
:101C70001A70FB681B69012B02D17A687B691A61B3
:101C8000FB7A03F07F03002B09D1FB681868FB681F
:101C90001B69DBB21A46796904F048FB08E0FB686F
:101CA0001868FB681B69DBB21A46796904F008F909
:101CB000002318461837BD4680BD80B483B000AFFE
:101CC00078600B46FB70FB7803F00F0279681346CF
:101CD000DB009B1A9B000B4403F504731B689BB24B
:101CE00018460C37BD465DF8047B704780B586B05A
:101CF00000AFF8607A603B600B46FB7200237B61AB
:101D0000FB7A03F07F021346DB009B1A9B003833FB
:101D1000FA6813447B617B697A68DA607B693A68A8
:101D20005A617B6900229A617B6901225A70FB7AB1
:101D300003F07F03DAB27B691A70FB681B69012B21
:101D400002D17A687B691A61FB7A03F07F03002B6A
:101D500009D1FB681868FB681B69DBB21A46796910
:101D600004F0E4FA08E0FB681868FB681B69DBB262
:101D70001A46796904F0A4F8002318461837BD46BE
:101D800080BD80B584B000AF78600B46FB70002347
:101D9000FB6097F90330002B0BDAFB7803F07F022E
:101DA0001346DB009B1A9B0038337A681344FB60B0
:101DB00009E0FA781346DB009B1A9B0003F5FC73DD
:101DC0007A681344FB60FB6801229A70FB7803F089
:101DD0007F03DAB2FB681A7097F90330DBB2DB09D4
:101DE000DBB21A46FB685A707B6893F8B833012B54
:101DF00001D102231EE07B68012283F8B8237B68AF
:101E00001B68F968184604F047FCFB7803F07F0371
:101E1000002B0AD17B6818687B681B69D9B27B6884
:101E200003F56F731A4604F02BFE7B68002283F8DB
:101E3000B823002318461037BD4680BD80B584B056
:101E400000AF78600B46FB700023FB6097F903300E
:101E5000002B0BDAFB7803F07F021346DB009B1AA2
:101E60009B0038337A681344FB6009E0FA78134624
:101E7000DB009B1A9B0003F5FC737A681344FB603C
:101E8000FB6800229A70FB7803F07F03DAB2FB68EC
:101E90001A7097F90330DBB2DB09DBB21A46FB6834
:101EA0005A707B6893F8B833012B01D102230EE0FE
:101EB0007B68012283F8B8237B681B68F9681846A1
:101EC00004F057FC7B68002283F8B82300231846EF
:101ED0001037BD4680BD80B582B000AF78600B463C
:101EE000FB707B6893F8B833012B01D102231BE010
:101EF0007B68012283F8B82397F90330002B09DAB5
:101F00007B681A68FB7803F07F031946104603F0DC
:101F100047FE04E07B681B68184603F067FE7B6899
:101F2000002283F8B823002318460837BD4680BD39
:101F300080B58AB002AF786039607B681B687B61CE
:101F400000233B610023FB610023BB610023FB6096
:101F50003A681346DB009B1A9B0038337A681344B7
:101F60003B613B695A693B699B69D31AFB613B69D9
:101F70009A68FB699A4202D23B699B68FB61FB69E4
:101F80000333002B00DA03339B10BB612EE03B6967
:101F90005A693B699B69D31AFB613B699A68FB6983
:101FA0009A4202D23B699B68FB61FB690333002BB9
:101FB00000DA03339B10BB613B69D9683B68DAB236
:101FC000FB6998B27B681B69DBB2009303467869B2
:101FD00004F000FB3B69DA68FB691A443B69DA608C
:101FE0003B699A69FB691A443B699A613B685A01EB
:101FF0007B69134403F510639B699BB2BA699A42EB
:1020000009D23B699A693B695B699A4203D23B6991
:102010005B69002BBBD1FB69002B0FDC01223B6805
:1020200002FA03F3FB607B6903F500635A6BFB68FC
:10203000DB43796901F5006113404B6300231846C7
:102040002037BD4680BD80B485B000AF78600B46B8
:10205000FB7013463B800023FB730023BB607B684F
:102060001B685B6ABB60FB78002B07D13B881904B7
:102070007B681B68BA680A439A6228E07B681B6821
:102080009B6A1B0CBA681344BB600023FB730DE012
:102090007B681A68FB7B40339B0013445B681B0C16
:1020A000BA681344BB60FB7B0133FB73FA7BFB789C
:1020B000013B9A42ECDB3B8818047B681968FB788B
:1020C000013BBA68024340339B000B445A60002333
:1020D00018461437BD465DF8047B704780B483B062
:1020E00000AF78600B467B807B681B687A885A62F9
:1020F000002318460C37BD465DF8047B704700008E
:1021000080B485B000AF78607B681B68FB607B683B
:102110000122C3F8F4237B68002283F8EC23FB68D8
:102120009B6943F00062FB689A61FB685A6D054B3E
:102130001343FA685365002318461437BD465DF80B
:10214000047B70470300001080B485B000AF786056
:102150007B681B68FB607B680122C3F8F823FB687F
:102160009B6B43F40032FB689A63FB689B6B43F400
:102170008022FB689A63002318461437BD465DF839
:10218000047B704780B483B000AF78600B46FB706F
:1021900000BF0C37BD465DF8047B704780B400AFCC
:1021A000054BDB68044A43F08073D36000BFBD4633
:1021B0005DF8047B704700BF0048025880B58EB0C0
:1021C00000AF786000237B637B681B6803F001032A
:1021D000002B00F08680934B1B6903F03803102B13
:1021E0000BD0904B1B6903F03803182B11D18D4B8A
:1021F0009B6A03F00303022B0BD18A4B1B6803F489
:102200000033002B6CD07B685B68002B68D1012306
:1022100064E37B685B68B3F5803F06D1814B1B6844
:10222000804A43F4803313602EE07B685B68002BA8
:102230000CD17C4B1B687B4A23F480331360794BB1
:102240001B68784A23F4802313601DE07B685B6879
:10225000B3F5A02F0CD1734B1B68724A43F4802353
:102260001360704B1B686F4A43F4803313600BE0BC
:102270006C4B1B686B4A23F480331360694B1B68FB
:10228000684A23F4802313607B685B68002B13D0BB
:10229000FEF74CFA786308E0FEF748FA02467B6BDB
:1022A000D31A642B01D9032318E35E4B1B6803F494
:1022B0000033002BF0D014E0FEF738FA786308E022
:1022C000FEF734FA02467B6BD31A642B01D9032341
:1022D00004E3544B1B6803F40033002BF0D100E0FF
:1022E00000BF7B681B6803F00203002B00F0A28094
:1022F0004C4B1B6903F03803002B0BD0494B1B6977
:1023000003F03803182B43D1464B9B6A03F00303B9
:10231000002B3DD1434B1B6803F00403002B05D079
:102320007B68DB68002B01D10123D7E23D4B1B68A2
:1023300023F019027B68DB683A4913430B60FEF710
:10234000F5F9786308E0FEF7F1F902467B6BD31AE2
:10235000022B01D90323C1E2324B1B6803F00403B3
:10236000002BF0D02F4B5B6823F47C327B6819691B
:102370004FF47C333B633B6B93FAA3F3FB62FB6A42
:10238000B3FA83F301FA03F3264913434B6051E098
:102390007B68DB68002B31D0224B1B6823F01902CD
:1023A0007B68DB681F4913430B60FEF7BFF9786356
:1023B00008E0FEF7BBF902467B6BD31A022B01D96A
:1023C00003238BE2174B1B6803F00403002BF0D0B0
:1023D000144B5B6823F47C327B6819694FF47C33BF
:1023E000BB62BB6A93FAA3F37B627B6AB3FA83F3A3
:1023F00001FA03F30B4913434B601BE0094B1B68C5
:10240000084A23F001031360FEF790F978630BE0AC
:10241000FEF78CF902467B6BD31A022B04D90323F7
:102420005CE200BF00440258A04B1B6803F00403A9
:10243000002BEDD17B681B6803F01003002B7FD0CD
:102440009A4B1B6903F03803082B0BD0974B1B6981
:1024500003F03803182B27D1944B9B6A03F0030336
:10246000012B21D1914B1B6803F48073002B05D005
:102470007B68DB69802B01D001232FE28B4B5B68EB
:1024800023F0F8427B68196A4FF0F8433B623B6ADD
:1024900093FAA3F3FB61FB69B3FA83F301FA03F345
:1024A000824913434B604BE07B68DB69002B2ED0E5
:1024B0007E4B1B687D4A43F080031360FEF736F9BC
:1024C000786308E0FEF732F902467B6BD31A022BE1
:1024D00001D9032302E2754B1B6803F48073002BC0
:1024E000F0D0724B5B6823F0F8427B68196A4FF0BA
:1024F000F843BB61BB6993FAA3F37B617B69B3FAD1
:1025000083F301FA03F3694913434B6018E0674B07
:102510001B68664A23F080031360FEF707F97863AF
:1025200008E0FEF703F902467B6BD31A022B01D9B0
:102530000323D3E15D4B1B6803F48073002BF0D1C0
:102540007B681B6803F00803002B36D07B685B694F
:10255000002B19D0554B5B6F544A43F0010353676E
:10256000FEF7E4F8786308E0FEF7E0F802467B6BDC
:10257000D31A022B01D90323B0E14C4B5B6F03F05C
:102580000203002BF0D018E0484B5B6F474A23F062
:1025900001035367FEF7CAF8786308E0FEF7C6F850
:1025A00002467B6BD31A022B01D9032396E13F4BE2
:1025B0005B6F03F00203002BF0D17B681B6803F014
:1025C0002003002B36D07B689B69002B19D0374B3A
:1025D0001B68364A43F480531360FEF7A7F878630C
:1025E00008E0FEF7A3F802467B6BD31A022B01D951
:1025F000032373E12D4B1B6803F40053002BF0D031
:1026000018E02A4B1B68294A23F480531360FEF715
:102610008DF8786308E0FEF789F802467B6BD31AE1
:10262000022B01D9032359E1204B1B6803F400530B
:10263000002BF0D17B681B6803F00403002B00F033
:1026400085801B4B1B681A4A43F480731360FEF7A6
:102650006DF8786308E0FEF769F802467B6BD31AE1
:10266000642B01D9032339E1114B1B6803F48073F8
:10267000002BF0D07B689B68012B06D10B4B1B6FA6
:102680000A4A43F00103136731E07B689B68002B23
:1026900010D1064B1B6F054A23F001031367034B50
:1026A0001B6F024A23F00403136720E00044025822
:1026B000004802587B689B68052B0CD1894B1B6F27
:1026C000884A43F004031367864B1B6F854A43F027
:1026D000010313670BE0834B1B6F824A23F0010356
:1026E0001367804B1B6F7F4A23F0040313677B68DB
:1026F0009B68002B15D0FEF719F878630AE0FEF707
:1027000015F802467B6BD31A41F28832934201D905
:102710000323E3E0734B1B6F03F00203002BEED0A7
:1027200014E0FEF703F878630AE0FDF7FFFF0246C6
:102730007B6BD31A41F28832934201D90323CDE057
:10274000684B1B6F03F00203002BEED17B685B6AC2
:10275000002B00F0C280634B1B6903F03803182B79
:1027600000F0B9807B685B6A022B40F09A805D4B79
:102770001B685C4A23F080731360FDF7D7FF786312
:1027800008E0FDF7D3FF02467B6BD31A022B01D979
:102790000323A3E0534B1B6803F00073002BF0D11D
:1027A000504B9A6A504B13407A68916A7A68D26AA1
:1027B00012010A434B4913438B627B681B6B013B3D
:1027C000C3F308027B685B6B013B5B029BB21A435D
:1027D0007B689B6B013B1B0403F4FE031A437B687D
:1027E000DB6B013B1B0603F0FE433E4913430B63C7
:1027F0003C4B5A6B3D4B13407A68916C4FF6F87224
:102800003A613A6992FAA2F2FA60FA68B2FA82F28E
:1028100001FA02F2334913434B63324BDB6A23F074
:102820000C027B681B6C2F491343CB622D4BDB6A78
:1028300023F002027B685B6C2A491343CB62294B6D
:10284000DB6A284A43F48033D362264BDB6A254A8D
:1028500043F40033D362234BDB6A224A43F48023E0
:10286000D362204BDB6A1F4A43F00103D3621D4B46
:102870001B681C4A43F080731360FDF757FF7863B1
:1028800008E0FDF753FF02467B6BD31A022B01D9F8
:10289000032323E0134B1B6803F00073002BF0D0DD
:1028A0001BE0104B1B680F4A23F080731360FDF789
:1028B0003DFF786308E0FDF739FF02467B6BD31AD2
:1028C000022B01D9032309E0064B1B6803F00073B8
:1028D000002BF0D101E0012300E000231846383737
:1028E000BD4680BD004402580CFCFFFF0700FFFFFF
:1028F00080B586B000AF7860396000237B619D4B66
:102900001B6803F007033A689A4210D9994B1B6879
:1029100023F0070297493B6813430B60954B1B68F4
:1029200003F007033A689A4201D001231DE17B6856
:102930001B6803F00203002B08D08F4B9B6923F028
:102940000F027B68DB688C4913438B617B681B68D3
:1029500003F00103002B00F09780874B9B6923F461
:1029600070627B689B68844913438B617B685B68FA
:10297000022B07D1804B1B6803F40033002B21D1BD
:102980000123F2E07B685B68032B07D17A4B1B685D
:1029900003F00073002B15D10123E6E07B685B6830
:1029A000012B07D1744B1B6803F48073002B09D1F2
:1029B0000123DAE0704B1B6803F00403002B01D104
:1029C0000123D2E06C4B1B6923F007027B685B6834
:1029D000694913430B61FDF7A9FE78617B685B6869
:1029E000022B12D10AE0FDF7A1FE02467B69D31A41
:1029F00041F28832934201D90323B6E05E4B1B6952
:102A000003F03803102BEED13EE07B685B68032BAC
:102A100012D10AE0FDF78AFE02467B69D31A41F221
:102A20008832934201D903239FE0534B1B6903F083
:102A30003803182BEED127E07B685B68012B1DD192
:102A40000AE0FDF773FE02467B69D31A41F2883231
:102A5000934201D9032388E0474B1B6903F03803F5
:102A6000082BEED110E0FDF761FE02467B69D31A18
:102A700041F28832934201D9032376E03E4B1B6931
:102A800003F03803002BEED13A4B1B6803F0070329
:102A90003A689A4210D2374B1B6823F00702354937
:102AA0003B6813430B60334B1B6803F007033A6822
:102AB0009A4201D0012358E07B681B6803F00403AD
:102AC000002B08D02C4B9B6923F070027B681B699C
:102AD000294913438B617B681B6803F00803002BB3
:102AE00008D0254BDB6923F070027B685B692249C3
:102AF0001343CB617B681B6803F01003002B08D0E5
:102B00001D4BDB6923F4E0627B689B691A49134320
:102B1000CB617B681B6803F02003002B08D0164BA9
:102B20001B6A23F070027B68DB69134913430B6255
:102B300000F028F80146104B9B6903F470624FF4D3
:102B400080733B613B6993FAA3F3FB60FB68B3FAC4
:102B500083F322FA03F3094AD35C21FA03F3084A08
:102B600013600020FDF79EFD002318461837BD4670
:102B700080BD00BF0020005200440258A8C80008D1
:102B8000B000002080B489B000AF01237B61002336
:102B90003B610123FB600023BB6000237B604FF09F
:102BA00000033B604FF00003FB610023BB61A84BB7
:102BB0001B6903F03803182B00F23F8101A252F881
:102BC00023F000BF292C00083B2E00083B2E0008F4
:102BD0003B2E00083B2E00083B2E00083B2E000831
:102BE0003B2E00084F2C00083B2E00083B2E00080F
:102BF0003B2E00083B2E00083B2E00083B2E000811
:102C00003B2E0008552C00083B2E00083B2E0008E8
:102C10003B2E00083B2E00083B2E00083B2E0008F0
:102C20003B2E00085B2C0008894B1B6803F0200337
:102C3000002B09D0864B1B68DB0803F00303854A91
:102C400022FA03F3BB61FBE0824BBB61F8E0824BED
:102C5000BB61F5E0814BBB61F2E07D4B9B6A03F009
:102C600003033B617A4B9B6A1B0903F03F03FB6044
:102C7000774BDB6A03F00103BB60754B5B6BDB08D2
:102C8000C3F30C03BA6802FB03F307EE903AF8EEC5
:102C9000677AC7ED007A3B69012B55D0012B02D32F
:102CA000022B72D092E06A4B1B6803F02003002BCA
:102CB00029D0674B1B68DB0803F00303654A22FA3F
:102CC00003F37B607A68FB68B2FBF3F307EE903A9C
:102CD000B8EE677A5E4B1B6BC3F3080307EE903ABE
:102CE000F8EE676A97ED006ADFED5D5AC6EE257A69
:102CF00076EEA77AF7EE006A77EEA67A67EE277A85
:102D0000C7ED077A83E0534AFB68B2FBF3F307EEA3
:102D1000903AB8EE677A4E4B1B6BC3F3080307EE8D
:102D2000903AF8EE676A97ED006ADFED4D5AC6EE0D
:102D3000257A76EEA77AF7EE006A77EEA67A67EE46
:102D4000277AC7ED077A62E0434AFB68B2FBF3F3E8
:102D500007EE903AB8EE677A3D4B1B6BC3F308035E
:102D600007EE903AF8EE676A97ED006ADFED3C5A9D
:102D7000C6EE257A76EEA77AF7EE006A77EEA67AA7
:102D800067EE277AC7ED077A41E0344AFB68B2FB69
:102D9000F3F307EE903AB8EE677A2D4B1B6BC3F353
:102DA000080307EE903AF8EE676A97ED006ADFEDE8
:102DB0002C5AC6EE257A76EEA77AF7EE006A77EE01
:102DC000A67A67EE277AC7ED077A20E0224AFB68E9
:102DD000B2FBF3F307EE903AB8EE677A1C4B1B6B2D
:102DE000C3F3080307EE903AF8EE676A97ED006ABE
:102DF000DFED1B5AC6EE257A76EEA77AF7EE006A6B
:102E000077EEA67A67EE277AC7ED077A00BF104BF8
:102E10001B6B5B0A03F07F0301337B617B6907EE69
:102E2000903AB8EE677AD7ED076AC6EE877AFCEE7D
:102E3000E77A17EE903ABB6102E0074BBB6100BF37
:102E4000BB6918462437BD465DF8047B704700BF58
:102E5000004402580090D00300093D0000127A009F
:102E60000000004680B582B000AF01F015FA0146BF
:102E70000D4B9B6903F00F0201237B607B6893FA83
:102E8000A3F33B603B68B3FA83F322FA03F3074AE8
:102E9000D35C21FA03F3064A1360054B1B681846FE
:102EA0000837BD4680BD00BF00440258A8C80008CE
:102EB000B400002080B582B000AFFFF7D3FF014619
:102EC0000B4BDB6903F0700210237B607B6893FA85
:102ED000A3F33B603B68B3FA83F322FA03F3054A9A
:102EE000D35C21FA03F318460837BD4680BD00BF06
:102EF00000440258A8C8000880B582B000AFFFF7B0
:102F0000B1FF01460B4BDB6903F4E0624FF48073C1
:102F10007B607B6893FAA3F33B603B68B3FA83F36F
:102F200022FA03F3044AD35C21FA03F31846083764
:102F3000BD4680BD00440258A8C8000880B586B0D0
:102F400000AF78600023FB750023BB757B681B68AE
:102F500003F00063002B3FD07B685B6EB3F5801FEE
:102F600013D0B3F5801F02D8002B07D01FE0B3F5B4
:102F7000001F13D0B3F5401F1CD018E0B14BDB6A23
:102F8000B04A43F40033D36215E07B680433022176
:102F9000184601F0A9F90346FB750CE07B68243361
:102FA0000221184601F03AFA0346FB7503E00123BB
:102FB000FB7500E000BFFB7D002B09D1A14B1B6D11
:102FC00023F440127B685B6E9E4913430B6503E05C
:102FD000BA7DFB7D1343BB757B681B6803F480736C
:102FE000002B3FD07B685B6D042B26D801A252F8E2
:102FF00023F000BF0930000817300008293000080E
:1030000041300008413000088E4BDB6A8D4A43F4A2
:103010000033D36215E07B6804330021184601F0C9
:1030200063F90346FB750CE07B68243300211846E6
:1030300001F0F4F90346FB7503E00123FB7500E0A2
:1030400000BFFB7D002B09D17E4B1B6D23F00702D7
:103050007B685B6D7B4913430B6503E0BA7DFB7DA9
:103060001343BB757B681B6803F40073002B40D0CF
:103070007B689B6D802B1CD0802B04D8002B08D044
:10308000402B0DD01EE0C02B1FD0B3F5807F1ED08B
:1030900018E06C4BDB6A6B4A43F40033D36217E0F1
:1030A0007B6804330021184601F01EF90346FB75C6
:1030B0000EE07B6824330021184601F0AFF9034687
:1030C000FB7505E00123FB7502E000BF00E000BFD7
:1030D000FB7D002B09D15B4B1B6D23F4E0727B68F9
:1030E0009B6D584913430B6503E0BA7DFB7D134389
:1030F000BB757B681B6803F48063002B46D07B683C
:10310000D3F8A430B3F5800F1FD0B3F5800F05D8E6
:10311000002B0AD0B3F5001F0ED01FE0B3F5C00F8F
:103120001FD0B3F5000F1ED018E0464BDB6A454AAE
:1031300043F40033D36217E07B6804330021184660
:1031400001F0D2F80346FB750EE07B6824330021C2
:10315000184601F063F90346FB7505E00123FB7592
:1031600002E000BF00E000BFFB7D002B0AD1354B21
:103170009B6D23F460027B68D3F8A430314913437C
:103180008B6503E0BA7DFB7D1343BB757B681B68D1
:1031900003F40063002B46D07B68D3F8A830B3F16A
:1031A000007F1FD0B3F1007F05D8002B0AD0B3F108
:1031B000807F0ED01FE0B3F1407F1FD0B3F1806F4E
:1031C0001ED018E01F4BDB6A1E4A43F40033D36263
:1031D00017E07B6804330021184601F085F80346A8
:1031E000FB750EE07B6824330021184601F016F9C8
:1031F0000346FB7505E00123FB7502E000BF00E01C
:1032000000BFFB7D002B0AD10E4B9B6D23F0E062CB
:103210007B68D3F8A8300B4913438B6503E0BA7D74
:10322000FB7D1343BB757B681B6803F00073002BA9
:1032300036D07B689B6C102B0BD0102B04D8002B46
:103240001AD016E000440258202B09D0302B15D09C
:103250000FE0AE4BDB6AAD4A43F40033D3620EE0BD
:103260007B6804330221184601F03EF80346FB75E3
:1032700005E00123FB7502E000BF00E000BFFB7D1D
:10328000002B09D1A14BDB6C23F030027B689B6CD7
:103290009E491343CB6403E0BA7DFB7D1343BB75AA
:1032A0007B681B6803F48053002B44D07B68DB6D84
:1032B000B3F5005F1FD0B3F5005F05D8002B0AD02F
:1032C000B3F5805F0ED01FE0B3F5405F1FD0B3F5BC
:1032D000804F1ED018E08D4BDB6A8C4A43F40033DC
:1032E000D36217E07B6804330021184600F0FCFF2E
:1032F0000346FB750EE07B6824330021184601F07D
:103300008DF80346FB7505E00123FB7502E000BF65
:1033100000E000BFFB7D002B09D17C4B1B6D23F42B
:10332000E0427B68DB6D794913430B6503E0BA7DAE
:10333000FB7D1343BB757B681B6803F40053002BB4
:1033400044D07B681B6EB3F5003F1BD0B3F5003F44
:1033500005D8002B22D0B3F5803F0AD01BE0B3F58F
:10336000802F1DD0B3F5A02F1CD0B3F5403F1BD04C
:1033700011E07B6804330121184600F0B5FF0346D5
:10338000FB7512E07B6824330121184601F046F8F2
:103390000346FB7509E00123FB7506E000BF04E06E
:1033A00000BF02E000BF00E000BFFB7D002B09D1A1
:1033B000564B1B6D23F4E0227B681B6E534913436D
:1033C0000B6503E0BA7DFB7D1343BB757B681B680F
:1033D00003F48043002B46D07B68D3F8AC30B3F1C4
:1033E000005F1BD0B3F1005F05D8002B22D0B3F1F2
:1033F000805F0AD01BE0B3F1804F1DD0B3F1A04F26
:103400001CD0B3F1405F1BD011E07B680433012175
:10341000184600F069FF0346FB7512E07B68243311
:103420000121184600F0FAFF0346FB7509E001236D
:10343000FB7506E000BF04E000BF02E000BF00E053
:1034400000BFFB7D002B0AD1304B9B6D23F0E04287
:103450007B68D3F8AC302D4913438B6503E0BA7D0C
:10346000FB7D1343BB757B681B6803F40043002B93
:103470002FD07B68DB6EB3F1805F05D0B3F1005FC6
:1034800009D0002B13D00FE0204BDB6A1F4A43F416
:103490000033D3620CE07B6804330121184600F04E
:1034A00023FF0346FB7503E00123FB7500E000BF2B
:1034B000FB7D002B09D1154B1B6D23F040527B681F
:1034C000DB6E124913430B6503E0BA7DFB7D1343AA
:1034D000BB757B681B6803F08073002B36D07B685C
:1034E0005B6C032B1DD801A252F823F0293500088C
:1034F000FD3400081135000829350008034BDB6A4C
:10350000024A43F40033D3620FE000BF0044025884
:103510007B6804330221184600F0E6FE0346FB7583
:1035200003E00123FB7500E000BFFB7D002B09D108
:10353000B04BDB6C23F003027B685B6CAD4913433B
:10354000CB6403E0BA7DFB7D1343BB757B681B68CE
:1035500003F48003002B00F08A80A74B1B68A64A67
:1035600043F480731360FDF7E1F8386109E0FDF77B
:10357000DDF802463B69D31A642B02D90323FB759D
:1035800005E09D4B1B6803F48073002BEFD0FB7D9F
:10359000002B68D1974B1A6F7B68D3F8B03053403B
:1035A00003F44073002B13D0924B1B6F23F4407332
:1035B000FB60904B1B6F8F4A43F4803313678D4B36
:1035C0001B6F8C4A23F4803313678A4AFB681367A6
:1035D0007B68D3F8B030B3F5807F15D1FDF7A6F83E
:1035E00038610BE0FDF7A2F802463B69D31A41F2BD
:1035F0008832934202D90323FB7505E07D4B1B6F94
:1036000003F00203002BEDD0FB7D002B26D17B685D
:10361000D3F8B03003F44073B3F5407F0DD1754B50
:103620001B6923F47C527B68D3F8B0301909734BC3
:103630000B40704913430B6105E06E4B1B696D4AEB
:1036400023F47C5313616B4B1A6F7B68D3F8B03053
:10365000C3F30B03674913430B6708E0BA7DFB7D97
:103660001343BB7503E0BA7DFB7D1343BB757B68D9
:103670001B6803F00103002B7FD07B689B6F282B16
:1036800066D801A252F823F05737000851370008D6
:1036900051370008513700085137000851370008EA
:1036A00051370008513700082D37000851370008FE
:1036B00051370008513700085137000851370008CA
:1036C00051370008513700083F37000851370008CC
:1036D00051370008513700085137000851370008AA
:1036E0005137000851370008573700085137000894
:1036F000513700085137000851370008513700088A
:103700005137000851370008573700085137000873
:103710005137000851370008513700085137000869
:103720005137000851370008573700087B680433C9
:103730000121184600F0D8FD0346FB750CE07B68BC
:1037400024330121184600F069FE0346FB7503E0AF
:103750000123FB7500E000BFFB7D002B09D1254B49
:103760005B6D23F038027B689B6F224913434B65E6
:1037700003E0BA7DFB7D1343BB757B681B6803F0D8
:103780000203002B40D07B685B6F052B20D801A281
:1037900052F823F0D7370008AD370008BF370008CC
:1037A000D7370008D7370008D73700087B680433BD
:1037B0000121184600F098FD0346FB750CE07B687C
:1037C00024330121184600F029FE0346FB7503E06F
:1037D0000123FB7500E000BFFB7D002B10D1054BE2
:1037E0005B6D23F007027B685B6F024913434B65F7
:1037F0000AE000BF0044025800480258CFFFFF0013
:10380000BA7DFB7D1343BB757B681B6803F0040323
:10381000002B3BD07B68D3F89030052B20D801A239
:1038200052F823F0673800083D3800084F38000888
:103830006738000867380008673800087B68043379
:103840000121184600F050FD0346FB750CE07B6833
:1038500024330121184600F0E1FD0346FB7503E027
:103860000123FB7500E000BFFB7D002B0AD1B74BA5
:103870009B6D23F007027B68D3F89030B349134364
:103880008B6503E0BA7DFB7D1343BB757B681B68CA
:1038900003F02003002B46D07B68D3F88C30B3F1C3
:1038A000005F1BD0B3F1005F05D8002B22D0B3F12D
:1038B000805F0AD01BE0B3F1804F1DD0B3F1A04F61
:1038C0001CD0B3F1405F1BD011E07B6804330021B2
:1038D000184600F009FD0346FB7512E07B682433AF
:1038E0000221184600F09AFD0346FB7509E001230A
:1038F000FB7506E000BF04E000BF02E000BF00E08F
:1039000000BFFB7D002B0AD1904B5B6D23F0E042A2
:103910007B68D3F88C308D4913434B6503E0BA7D47
:10392000FB7D1343BB757B681B6803F04003002BD2
:1039300046D07B68D3F89830B3F5006F1BD0B3F551
:10394000006F05D8002B22D0B3F5806F0AD01BE0A2
:10395000B3F5805F1DD0B3F5A05F1CD0B3F5406F09
:103960001BD011E07B6804330021184600F0BCFC3A
:103970000346FB7512E07B6824330221184600F0F1
:103980004DFD0346FB7509E00123FB7506E000BF12
:1039900004E000BF02E000BF00E000BFFB7D002BA1
:1039A0000AD16A4B9B6D23F4E0527B68D3F89830C0
:1039B000664913438B6503E0BA7DFB7D1343BB75FA
:1039C0007B681B6803F08003002B46D07B68D3F82C
:1039D0009C30B3F5804F1BD0B3F5804F05D8002B3A
:1039E00022D0B3F5005F0AD01BE0B3F5004F1DD025
:1039F000B3F5204F1CD0B3F5C04F1BD011E07B684E
:103A000004330021184600F06FFC0346FB7512E0FA
:103A10007B6824330221184600F000FD0346FB7545
:103A200009E00123FB7506E000BF04E000BF02E0EF
:103A300000BF00E000BFFB7D002B0AD1434B9B6D14
:103A400023F460427B68D3F89C30404913438B6574
:103A500003E0BA7DFB7D1343BB757B681B6803F0F5
:103A60000803002B1BD07B68D3F88030B3F5805F50
:103A70000BD17B6824330221184600F0CFFC0346AB
:103A80001A46BB7D1343BB7509E0304B5B6D23F4D5
:103A900040527B68D3F880302C4913434B657B68D8
:103AA0001B6803F01003002B1BD07B68D3F8943005
:103AB000B3F5807F0BD17B6824330221184600F0D8
:103AC000ADFC03461A46BB7D1343BB7509E01F4B93
:103AD0009B6D23F440727B68D3F894301B491343E9
:103AE0008B657B681B6803F40023002B34D07B6854
:103AF000D3F8A030B3F5803F0DD0B3F5003F16D01A
:103B0000002B11D17B6804330021184600F0ECFB38
:103B10000346FB750CE07B6824330221184600F055
:103B20007DFC0346FB7503E00123FB7500E000BF4D
:103B3000FB7D002B0CD1054B9B6D23F440327B6841
:103B4000D3F8A030014913438B6505E000440258C7
:103B5000BA7DFB7D1343BB757B681B6803F4802330
:103B6000002B31D07B68D3F88430B3F5001F0CD024
:103B7000B3F5401F15D0B3F5801F0FD17C4BDB6A26
:103B80007B4A43F40033D3620CE07B682433012189
:103B9000184600F043FC0346FB7503E00123FB7568
:103BA00000E000BFFB7D002B0AD1714B5B6D23F45D
:103BB00040127B68D3F884306D4913434B6503E0B2
:103BC000BA7DFB7D1343BB757B681B6803F48033B0
:103BD000002B2BD07B68DB6C002B03D0B3F5803F30
:103BE00007D00FE0624BDB6A614A43F40033D362D3
:103BF0000BE07B6804330221184600F075FB034696
:103C0000FB7502E00123FB7500BFFB7D002B09D192
:103C1000574BDB6C23F480327B68DB6C54491343D5
:103C2000CB6403E0BA7DFB7D1343BB757B681B68E7
:103C300003F00053002B0AD07B682433022118467E
:103C400000F0ECFB03461A46BB7D1343BB757B6853
:103C50001B6803F40033002B31D07B68DB6FB3F5B6
:103C6000807F0CD0B3F5807F02D8002B11D00DE0FF
:103C7000B3F5007F0FD0B3F5407F0ED006E03C4B8C
:103C8000DB6A3B4A43F40033D36207E00123FB7550
:103C900004E000BF02E000BF00E000BFFB7D002B9E
:103CA00009D1334B5B6D23F440727B68DB6F304985
:103CB00013434B6503E0BA7DFB7D1343BB757B6803
:103CC0001B6803F48013002B08D0294B1B6D23F0D5
:103CD00000427B681B6F264913430B657B681B689A
:103CE00003F08053002B09D0214B1B6923F4804241
:103CF0007B68D3F8B4301E4913430B617B681B68A3
:103D000003F40013002B08D0194B1B6D23F08072B5
:103D10007B689B6E164913430B657B681B6803F039
:103D20008043002B0DD0124B1B69114A23F4004332
:103D300013610F4B1A697B68D3F8B8300C491343F1
:103D40000B617B681B68002B08DA094BDB6C23F0E6
:103D500040527B681B6D06491343CB64BB7D002B2F
:103D600001D1002300E0012318461837BD4680BD6D
:103D70000044025880B582B000AFFFF773F80146E7
:103D80000B4B1B6A03F0700210237B607B6893FA75
:103D9000A3F33B603B68B3FA83F322FA03F3054ACB
:103DA000D35C21FA03F318460837BD4680BD00BF37
:103DB00000440258A8C8000880B489B000AF7860F9
:103DC0000023BB6101237B6100233B610023FB6077
:103DD0004FF00003BB604FF00003FB618D4B9B6A0B
:103DE00003F00303BB618B4B9B6A1B0B03F03F0388
:103DF0007B61884BDB6A03F010033B61854BDB6B17
:103E0000DB08C3F30C033A6902FB03F307EE903AB5
:103E1000F8EE677AC7ED027ABB69012B55D0012B0A
:103E200002D3022B72D092E07A4B1B6803F020037E
:103E3000002B29D0774B1B68DB0803F00303764A7D
:103E400022FA03F3FB60FA687B69B2FBF3F307EE37
:103E5000903AB8EE677A6F4B9B6BC3F3080307EE9B
:103E6000903AF8EE676A97ED026ADFED6C5AC6EE9B
:103E7000257A76EEA77AF7EE006A77EEA67A67EEF5
:103E8000277AC7ED077A83E0634A7B69B2FBF3F3D5
:103E900007EE903AB8EE677A5E4B9B6BC3F308036C
:103EA00007EE903AF8EE676A97ED026ADFED5B5A2B
:103EB000C6EE257A76EEA77AF7EE006A77EEA67A56
:103EC00067EE277AC7ED077A62E0554A7B69B2FB55
:103ED000F3F307EE903AB8EE677A4E4B9B6BC3F361
:103EE000080307EE903AF8EE676A97ED026ADFED95
:103EF0004B5AC6EE257A76EEA77AF7EE006A77EE91
:103F0000A67A67EE277AC7ED077A41E0454A7B69D2
:103F1000B2FBF3F307EE903AB8EE677A3D4B9B6B3A
:103F2000C3F3080307EE903AF8EE676A97ED026A6A
:103F3000DFED3A5AC6EE257A76EEA77AF7EE006AFA
:103F400077EEA67A67EE277AC7ED077A20E0344A43
:103F50007B69B2FBF3F307EE903AB8EE677A2D4B2C
:103F60009B6BC3F3080307EE903AF8EE676A97ED90
:103F7000026ADFED2A5AC6EE257A76EEA77AF7EEC8
:103F8000006A77EEA67A67EE277AC7ED077A00BF58
:103F9000204B9B6B5B0A03F07F03013307EE903AE3
:103FA000B8EE677AD7ED076AC6EE877AFCEEE77A55
:103FB00017EE902A7B681A60164B9B6B1B0C03F064
:103FC0007F03013307EE903AB8EE677AD7ED076AC0
:103FD000C6EE877AFCEEE77A17EE902A7B685A6085
:103FE0000C4B9B6B1B0E03F07F03013307EE903AE3
:103FF000B8EE677AD7ED076AC6EE877AFCEEE77A05
:1040000017EE902A7B689A6000BF2437BD465DF8A2
:10401000047B7047004402580090D0030000004623
:1040200000093D0000127A0080B489B000AF7860CA
:104030000023BB6101237B6100233B610023FB6004
:104040004FF00003BB604FF00003FB618D4B9B6A98
:1040500003F00303BB618B4B9B6A1B0D03F03F0313
:104060007B61884BDB6A03F480733B61854B5B6C3F
:10407000DB08C3F30C033A6902FB03F307EE903A43
:10408000F8EE677AC7ED027ABB69012B55D0012B98
:1040900002D3022B72D092E07A4B1B6803F020030C
:1040A000002B29D0774B1B68DB0803F00303764A0B
:1040B00022FA03F3FB60FA687B69B2FBF3F307EEC5
:1040C000903AB8EE677A6F4B1B6CC3F3080307EEA8
:1040D000903AF8EE676A97ED026ADFED6C5AC6EE29
:1040E000257A76EEA77AF7EE006A77EEA67A67EE83
:1040F000277AC7ED077A83E0634A7B69B2FBF3F363
:1041000007EE903AB8EE677A5E4B1B6CC3F3080378
:1041100007EE903AF8EE676A97ED026ADFED5B5AB8
:10412000C6EE257A76EEA77AF7EE006A77EEA67AE3
:1041300067EE277AC7ED077A62E0554A7B69B2FBE2
:10414000F3F307EE903AB8EE677A4E4B1B6CC3F36D
:10415000080307EE903AF8EE676A97ED026ADFED22
:104160004B5AC6EE257A76EEA77AF7EE006A77EE1E
:10417000A67A67EE277AC7ED077A41E0454A7B6960
:10418000B2FBF3F307EE903AB8EE677A3D4B1B6C47
:10419000C3F3080307EE903AF8EE676A97ED026AF8
:1041A000DFED3A5AC6EE257A76EEA77AF7EE006A88
:1041B00077EEA67A67EE277AC7ED077A20E0344AD1
:1041C0007B69B2FBF3F307EE903AB8EE677A2D4BBA
:1041D0001B6CC3F3080307EE903AF8EE676A97ED9D
:1041E000026ADFED2A5AC6EE257A76EEA77AF7EE56
:1041F000006A77EEA67A67EE277AC7ED077A00BFE6
:10420000204B1B6C5B0A03F07F03013307EE903AEF
:10421000B8EE677AD7ED076AC6EE877AFCEEE77AE2
:1042200017EE902A7B681A60164B1B6C1B0C03F070
:104230007F03013307EE903AB8EE677AD7ED076A4D
:10424000C6EE877AFCEEE77A17EE902A7B685A6012
:104250000C4B1B6C1B0E03F07F03013307EE903AEF
:10426000B8EE677AD7ED076AC6EE877AFCEEE77A92
:1042700017EE902A7B689A6000BF2437BD465DF830
:10428000047B7047004402580090D00300000046B1
:1042900000093D0000127A0080B582B000AFFEF741
:1042A00071FC01460D4B9B6903F470624FF48073FF
:1042B0007B607B6893FAA3F33B603B68B3FA83F3BC
:1042C00022FA03F3064AD35C21FA03F3054A13608A
:1042D000044B1B6818460837BD4680BD0044025891
:1042E000A8C80008B000002080B584B000AF786096
:1042F00039600023FB73484B9B6A03F00303032BD5
:1043000001D1012383E0444B1B68434A23F08063BF
:104310001360FCF70BFAB86008E0FCF707FA0246F6
:10432000BB68D31A022B01D9032370E03A4B1B68F8
:1043300003F00063002BF0D1374B9B6A23F47C32EF
:104340007B681B681B03344913438B627B685B6883
:10435000013BC3F308027B689B68013B5B029BB295
:104360001A437B68DB68013B1B0403F4FE031A431A
:104370007B681B69013B1B0603F0FE432649134380
:104380008B63254BDB6A23F0C0027B685B692249A3
:104390001343CB62204BDB6A23F020027B689B69CE
:1043A0001D491343CB623B68002B06D11A4BDB6AD5
:1043B000194A43F40023D3620FE03B68012B06D176
:1043C000154BDB6A144A43F48013D36205E0124BA9
:1043D000DB6A114A43F40013D3620F4B1B680E4A89
:1043E00043F080631360FCF7A1F9B86008E0FCF7C4
:1043F0009DF90246BB68D31A022B01D9032306E0BC
:10440000054B1B6803F00063002BF0D0FB7B1846C4
:104410001037BD4680BD00BF0044025880B584B04F
:1044200000AF786039600023FB73484B9B6A03F050
:104430000303032B01D1012383E0444B1B68434A50
:1044400023F080531360FCF771F9B86008E0FCF7C3
:104450006DF90246BB68D31A022B01D9032370E021
:104460003A4B1B6803F00053002BF0D1374B9B6A8B
:1044700023F07C727B681B681B05344913438B62F5
:104480007B685B68013BC3F308027B689B68013B68
:104490005B029BB21A437B68DB68013B1B0403F49D
:1044A000FE031A437B681B69013B1B0603F0FE43B6
:1044B000264913430B64254BDB6A23F440627B6877
:1044C0005B6922491343CB62204BDB6A23F4007201
:1044D0007B689B691D491343CB623B68002B06D167
:1044E0001A4BDB6A194A43F48003D3620FE03B683E
:1044F000012B06D1154BDB6A144A43F40003D36247
:1045000005E0124BDB6A114A43F08073D3620F4B14
:104510001B680E4A43F080531360FCF707F9B8603C
:1045200008E0FCF703F90246BB68D31A022B01D955
:10453000032306E0054B1B6803F00053002BF0D06B
:10454000FB7B18461037BD4680BD00BF00440258B3
:1045500080B582B000AF78607B68002B01D1012369
:1045600043E07B6893F87930DBB2002B06D17B689F
:10457000002283F87820786806F0FAFB7B68242212
:1045800083F879207B681B681A687B681B6822F0B7
:1045900001021A60786800F02DF80346012B01D162
:1045A000012322E07B685B6B002B02D0786800F06F
:1045B000E7FF7B681B685A687B681B6822F490429F
:1045C0005A607B681B689A687B681B6822F02A0225
:1045D0009A607B681B681A687B681B6842F001025E
:1045E0001A60786801F06EF8034618460837BD4631
:1045F00080BD00002DE990488CB000AF78600023AA
:10460000FB62802387F82B300023BB8400233B858B
:10461000002387F827307B689A687B681B691A43F8
:104620007B685B691A437B68DB691343FB627B68C9
:104630009B6AFA6A1343FB627B681B681A68C14B6A
:1046400013407A681268F96A0B4313607B681B6831
:104650005B6823F440517B68DA687B681B680A4317
:104660005A607B689B69FB627B681B68B64A934211
:1046700004D07B681B6AFA6A1343FB627B689B6AFF
:10468000B3F1005F07D17B68DA6A7B681B6B134369
:10469000FA6A1343FB627B681B689A68AB4B134052
:1046A0007A681268F96A0B4393607B681B68DB6A5F
:1046B00023F00F017B685A6A7B681B680A43DA6241
:1046C0007B681B68A24A934275D1A24B5B6D03F0D5
:1046D0003803282B00F2668201A252F823F000BFB3
:1046E00085470008A54B0008A54B0008A54B00080E
:1046F000A54B0008A54B0008A54B0008A54B0008DA
:104700008D470008A54B0008A54B0008A54B0008E5
:10471000A54B0008A54B0008A54B0008A54B0008B9
:1047200095470008A54B0008A54B0008A54B0008BD
:10473000A54B0008A54B0008A54B0008A54B000899
:104740009D470008A54B0008A54B0008A54B000895
:10475000A54B0008A54B0008A54B0008A54B000879
:10476000A5470008A54B0008A54B0008A54B00086D
:10477000A54B0008A54B0008A54B0008A54B000859
:10478000AD470008012387F82B300AE2042387F89D
:104790002B3006E2402387F82B3002E2082387F80B
:1047A0002B30FEE1102387F82B30FAE1202387F825
:1047B0002B3000BFF5E17B681B68674A93422ED11E
:1047C000644B5B6D03F00703052B00F2EB8101A244
:1047D00052F823F0ED470008F5470008FD470008B0
:1047E000054800080D48000815480008002387F810
:1047F0002B30D6E1042387F82B30D2E1402387F811
:104800002B30CEE1082387F82B30CAE1102387F83C
:104810002B30C6E1202387F82B3000BFC1E17B6835
:104820001B684E4A93422ED14A4B5B6D03F007033F
:10483000052B00F2B78101A252F823F05548000879
:104840005D480008654800086D4800087548000884
:104850007D480008002387F82B30A2E1042387F865
:104860002B309EE1402387F82B309AE1082387F80C
:104870002B3096E1102387F82B3092E1202387F824
:104880002B3000BF8DE17B681B68354A93422ED1E7
:10489000304B5B6D03F00703052B00F2838101A20F
:1048A00052F823F0BD480008C5480008CD4800086C
:1048B000D5480008DD480008E5480008002387F8CF
:1048C0002B306EE1042387F82B306AE1402387F810
:1048D0002B3066E1082387F82B3062E1102387F83C
:1048E0002B305EE1202387F82B3000BF59E17B6835
:1048F0001B681C4A934240D1164B5B6D03F00703C3
:10490000052B00F24F8101A252F823F0254900083F
:104910002D490008354900083D490008694900084B
:1049200071490008002387F82B303AE1042387F807
:104930002B3036E1402387F82B3032E1082387F80B
:104940002B302EE1F369FFCF000C0058FFF4FF116C
:10495000001001400044025800440040004800405C
:10496000004C004000500040102387F82B3018E125
:10497000202387F82B3000BF13E17B681B68C64AF1
:10498000934274D1C54B5B6D03F03803282B00F2C2
:10499000098101A252F823F03D4A0008A54B000806
:1049A000A54B0008A54B0008A54B0008A54B000827
:1049B000A54B0008A54B0008454A0008A54B000878
:1049C000A54B0008A54B0008A54B0008A54B000807
:1049D000A54B0008A54B00084D4A0008A54B000850
:1049E000A54B0008A54B0008A54B0008A54B0008E7
:1049F000A54B0008A54B0008554A0008A54B000828
:104A0000A54B0008A54B0008A54B0008A54B0008C6
:104A1000A54B0008A54B00085D4A0008A54B0008FF
:104A2000A54B0008A54B0008A54B0008A54B0008A6
:104A3000A54B0008A54B0008654A0008012387F82C
:104A40002B30AEE0042387F82B30AAE0402387F810
:104A50002B30A6E0082387F82B30A2E0102387F83C
:104A60002B309EE0202387F82B3000BF99E07B6835
:104A70001B688B4A93422ED1884B5B6D03F0070372
:104A8000052B00F28F8001A252F823F0A54A0008FE
:104A9000AD4A0008B54A0008BD4A0008C54A0008EA
:104AA000CD4A0008002387F82B307AE0042387F8EA
:104AB0002B3076E0402387F82B3072E0082387F80C
:104AC0002B306EE0102387F82B306AE0202387F824
:104AD0002B3000BF65E07B681B68724A93422ED181
:104AE0006E4B5B6D03F00703052B5BD801A252F8F8
:104AF00023F000BF0D4B0008154B00081D4B0008AC
:104B0000254B00082D4B0008354B0008002387F883
:104B10002B3046E0042387F82B3042E0402387F80F
:104B20002B303EE0082387F82B303AE0102387F83B
:104B30002B3036E0202387F82B3000BF31E07B6834
:104B40001B68594A93422DD1544B9B6D03F00703C8
:104B5000052B27D801A252F823F000BF754B00089F
:104B60007D4B0008854B00088D4B0008954B0008D5
:104B70009D4B0008022387F82B3012E0042387F8AE
:104B80002B300EE0402387F82B300AE0082387F80B
:104B90002B3006E0102387F82B3002E0202387F823
:104BA0002B3000BF7B681B683F4A934240F01C8259
:104BB0000023FB6297F82B30082B21D0082B04DC54
:104BC000022B09D0042B0BD034E0202B2ED0402B0D
:104BD0000ED0102B27D02DE0FFF7CCF8F8622DE097
:104BE00007F118031846FFF7E7F8FB69FB6225E0B9
:104BF00007F10C031846FFF717FA3B69FB621DE04B
:104C0000264B1B6803F02003002B09D0234B1B68A5
:104C1000DB0803F00303254A22FA03F3FB620DE0ED
:104C2000224BFB620AE0224BFB6207E04FF4004399
:104C3000FB6203E0012387F8273000BFFB6A002BEB
:104C400000F08E847B685A6813465B001344FA6A4E
:104C50009A4205D37B685B681B03FA6A9A4204D9BF
:104C6000012387F8273000F07BBC97F82B30082B06
:104C700000F0C880082B04DC022B1BD0042B4FD083
:104C800094E1202B00F06581402B00F08280102BF6
:104C900000F02C818AE100BF00140140004402585A
:104CA00000780040007C0040000C00580090D003C9
:104CB00000093D00FFF75EF8034618464FF000017B
:104CC0007B685B6AC44A32F813309BB24FF0000431
:104CD0001A462346FBF704FB03460C4619462246B8
:104CE0004FF000034FF00004140244EA11640B0279
:104CF0007A685268520811464FF0000213EB010B1C
:104D000044EB020C584661467B685B684FF0000438
:104D10001A462346FBF7E4FA03460C46FB6249E1D8
:104D200007F118031846FFF747F8FB6918464FF0DC
:104D300000017B685B6AA84A32F813309BB24FF0DF
:104D400000041A462346FBF7CBFA03460C461946E5
:104D500022464FF000034FF00004140244EA1164AD
:104D60000B027A685268520811464FF0000213EBAA
:104D7000010B44EB020C584661467B685B684FF0C0
:104D800000041A462346FBF7ABFA03460C46FB62C7
:104D900010E107F10C031846FFF746F93B69184686
:104DA0004FF000017B685B6A8B4A32F813309BB28C
:104DB0004FF000041A462346FBF792FA03460C46CE
:104DC000194622464FF000034FF00004140244EA53
:104DD00011640B027A685268520811464FF00002C3
:104DE00013EB010B44EB020C584661467B685B6891
:104DF0004FF000041A462346FBF772FA03460C46AE
:104E0000FB62D7E0754B1B6803F02003002B3AD000
:104E1000724B1B68DB0803F00303714A22FA03F3A9
:104E200018464FF000017B685B6A6B4A32F813301A
:104E30009BB24FF000041A462346FBF751FA034693
:104E40000C46194622464FF000034FF000041402AE
:104E500044EA11640B027A685268520811464FF016
:104E6000000213EB010B44EB020C584661467B68D1
:104E70005B684FF000041A462346FBF731FA0346FD
:104E80000C46FB6296E07B685B6A534A32F813304B
:104E90009BB24FF000041A46234651484FF00001E0
:104EA000FBF71EFA03460C46194622464FF0000354
:104EB0004FF00004140244EA11640B027A6852684D
:104EC000520811464FF0000213EB010B44EB020CA9
:104ED000584661467B685B684FF000041A462346DB
:104EE000FBF7FEF903460C46FB6263E07B685B6AF6
:104EF000394A32F813309BB24FF000041A46234669
:104F000038484FF00001FBF7EBF903460C46194611
:104F100022464FF000034FF00004140244EA1164EB
:104F20000B027A685268520811464FF0000213EBE8
:104F3000010B44EB020C584661467B685B684FF0FE
:104F400000041A462346FBF7CBF903460C46FB62E6
:104F500030E07B685B6A204A32F813304FF400423D
:104F6000B2FBF3F39BB299B24FF000024FF0000393
:104F70004FF00004140244EA11640B027A6852688C
:104F8000520811464FF0000213EB010B44EB020CE8
:104F9000584661467B685B684FF000041A4623461A
:104FA000FBF79EF903460C46FB6203E0012387F8FA
:104FB000273000BFFB6AB3F5407F08D3FB6AB3F527
:104FC000801F04D27B681B68FA6ADA60C8E201239A
:104FD00087F82730C4E200BFE8C700080044025841
:104FE0000090D00300093D007B68DB69B3F5004FFA
:104FF00040F0578197F82B30402B00F23C8101A202
:1050000052F823F009510008335100087752000884
:10501000775200085D510008775200087752000867
:1050200077520008BD5100087752000877520008F7
:10503000775200087752000877520008775200082C
:10504000775200082552000877520008775200086E
:10505000775200087752000877520008775200080C
:1050600077520008775200087752000877520008FC
:1050700077520008775200087752000877520008EC
:10508000775200084D520008775200087752000806
:1050900077520008775200087752000877520008CC
:1050A00077520008775200087752000877520008BC
:1050B00077520008775200087752000877520008AC
:1050C000775200087752000877520008775200089C
:1050D000775200087752000877520008775200088C
:1050E000775200087752000877520008775200087C
:1050F000775200087752000877520008775200086C
:10510000775200088D510008FDF7D4FE01467B68F8
:105110005B6AC04A32F81330B1FBF3F35A007B6884
:105120005B685B081A447B685B68B2FBF3F33B8502
:10513000A5E0FDF7E1FE01467B685B6AB54A32F8FF
:105140001330B1FBF3F35A007B685B685B081A44C9
:105150007B685B68B2FBF3F33B8590E007F11803D3
:105160001846FEF729FEFB697A68526AA94931F8A8
:105170001220B3FBF2F35A007B685B685B081A44A9
:105180007B685B68B2FBF3F33B8578E007F10C03C7
:105190001846FEF749FF3B697A68526A9D4931F823
:1051A0001220B3FBF2F35A007B685B685B081A4479
:1051B0007B685B68B2FBF3F33B8560E0964B1B6852
:1051C00003F02003002B19D0934B1B68DB0803F07E
:1051D0000303924A22FA03F37A68526A8D4931F83E
:1051E0001220B3FBF2F35A007B685B685B081A4439
:1051F0007B685B68B2FBF3F33B8540E07B685B6AEE
:10520000844A32F813301A46844BB3FBF2F35A0047
:105210007B685B685B081A447B685B68B2FBF3F3EE
:105220003B852CE07B685B6A7A4A32F813301A4679
:105230007B4BB3FBF2F35A007B685B685B081A4454
:105240007B685B68B2FBF3F33B8518E07B685B6AC5
:10525000704A32F813304FF40042B2FBF3F39BB2C2
:105260005A007B685B685B081A447B685B68B2FB2A
:10527000F3F33B8503E0012387F8273000BF3B8D24
:1052800023F00F03BB843B8D5B109BB203F007033D
:105290009AB2BB8C1343BB847B681B68BA8CDA6000
:1052A0005EE197F82B30402B00F2568101A252F8B4
:1052B00023F000BFB9530008E75300085955000810
:1052C000595500082554000859550008595500083B
:1052D000595500088D5400085955000859550008C3
:1052E00059550008595500085955000859550008E6
:1052F00059550008FD540008595500085955000833
:1053000059550008595500085955000859550008C5
:1053100059550008595500085955000859550008B5
:1053200059550008595500085955000859550008A5
:1053300059550008295500085955000859550008C5
:105340005955000859550008595500085955000885
:105350005955000859550008595500085955000875
:105360005955000859550008595500085955000865
:105370005955000859550008595500085955000855
:105380005955000859550008595500085955000845
:105390005955000859550008595500085955000835
:1053A0005955000859550008595500085955000825
:1053B0005955000859540008FDF77CFD01467B68EB
:1053C0005B6A144A32F81330B1FBF3F27B685B6816
:1053D0005B081A447B685B68B2FBF3F39AB27B68A4
:1053E0001B68DA60BCE0FDF787FD01467B685B6AFD
:1053F000084A32F81330B1FBF3F27B685B685B0854
:105400001A447B685B68B2FBF3F39AB27B681B6853
:10541000DA60A5E0E8C70008004402580090D00315
:1054200000093D0007F118031846FEF7C5FCFB69AB
:105430007A68526A4E4931F81220B3FBF2F27B6867
:105440005B685B081A447B685B68B2FBF3F39AB253
:105450007B681B68DA6083E007F10C031846FEF7EF
:10546000E3FD3B697A68526A414931F81220B3FB87
:10547000F2F27B685B685B081A447B685B68B2FB8E
:10548000F3F39AB27B681B68DA6069E0394B1B68FA
:1054900003F02003002B1BD0364B1B68DB0803F006
:1054A0000303354A22FA03F37A68526A304931F825
:1054B0001220B3FBF2F27B685B685B081A447B68DE
:1054C0005B68B2FBF3F39AB27B681B68DA6047E073
:1054D0007B685B6A264A32F813301A46264BB3FBC8
:1054E000F2F27B685B685B081A447B685B68B2FB1E
:1054F000F3F39AB27B681B68DA6031E07B685B6A21
:105500001B4A32F813301A461C4BB3FBF2F27B688D
:105510005B685B081A447B685B68B2FBF3F39AB282
:105520007B681B68DA601BE07B685B6A104A32F8B4
:1055300013304FF40042B2FBF3F39BB21A467B6880
:105540005B685B081A447B685B68B2FBF3F39AB252
:105550007B681B68DA6003E0012387F8273000BF0F
:1055600097F8273018463037BD46BDE8908800BF11
:10557000E8C70008004402580090D00300093D002D
:1055800080B483B000AF78607B685B6B03F001038D
:10559000002B0AD07B681B685B6823F400317B68B2
:1055A0009A6B7B681B680A435A607B685B6B03F0ED
:1055B0000203002B0AD07B681B685B6823F48031F0
:1055C0007B68DA6B7B681B680A435A607B685B6B9D
:1055D00003F00403002B0AD07B681B685B6823F48C
:1055E00080217B681A6C7B681B680A435A607B6861
:1055F0005B6B03F00803002B0AD07B681B685B68B9
:1056000023F400417B685A6C7B681B680A435A602C
:105610007B685B6B03F01003002B0AD07B681B6870
:105620009B6823F480517B689A6C7B681B680A43F3
:105630009A607B685B6B03F02003002B0AD07B68C9
:105640001B689B6823F400517B68DA6C7B681B68DD
:105650000A439A607B685B6B03F04003002B1AD00F
:105660007B681B685B6823F480117B681A6D7B681C
:105670001B680A435A607B681B6DB3F5801F0AD113
:105680007B681B685B6823F4C0017B685A6D7B688C
:105690001B680A435A607B685B6B03F08003002B36
:1056A0000AD07B681B685B6823F400217B689A6DD5
:1056B0007B681B680A435A6000BF0C37BD465DF823
:1056C000047B704780B586B002AF78600023FB6032
:1056D0007B680022DA67FBF729F8F8607B681B68B3
:1056E0001B6803F00803082B0ED16FF07E43009374
:1056F000FB6800224FF40011786800F02CF8034694
:10570000002B01D0032322E07B681B681B6803F099
:105710000403042B0ED16FF07E430093FB6800223C
:105720004FF48001786800F016F80346002B01D092
:1057300003230CE07B68202283F879207B682022F9
:1057400083F87A207B68002283F8782000231846AB
:105750001037BD4680BD80B584B000AFF860B96039
:105760003B601346FB712CE0BB69B3F1FF3F28D0CF
:10577000BB69002B07D0FAF7D9FF02463B68D31A62
:10578000BA699A421DD2FB681B681A68FB681B68DD
:1057900022F4D0721A60FB681B689A68FB681B6869
:1057A00022F001029A60FB68202283F87920FB68CE
:1057B000202283F87A20FB68002283F878200323D4
:1057C0000FE0FB681B68DA69BB681340BA689A424D
:1057D0000CBF01230023DBB21A46FB799A42C3D0E7
:1057E000002318461037BD4680BD000084B080B548
:1057F00082B000AF786007F1140080E80E00BB6A49
:10580000012B1ED17B689B6B23F480327B689A63EB
:105810007B68DA681D4B13407A68D3607B68DB686D
:1058200023F440127B68DA607B6C012B05D17B6826
:10583000DB6843F480127B68DA60786801F062F913
:105840000CE07B68DB6843F040027B68DA607868D4
:1058500001F058F97B684FF480329A633B6A012B60
:105860000BD17B689B6843F00C027B689A607B6875
:105870009B6843F020027B689A6000231846083733
:10588000BD46BDE8804004B0704700BFBFFFBDFF0C
:1058900080B483B000AF78607B689B6843F00102FE
:1058A0007B689A60002318460C37BD465DF8047B80
:1058B000704780B483B000AF78607B689B6823F04A
:1058C00001027B689A60002318460C37BD465DF8DC
:1058D000047B704780B582B000AF78600B46FB70E8
:1058E0007B68DB6823F0C0427B68DA60FB78012BC1
:1058F00006D17B68DB6843F000527B68DA6008E021
:10590000FB78002B05D17B68DB6843F080427B6825
:10591000DA603220FAF716FF002318460837BD4632
:1059200080BD000084B080B584B000AF786007F11E
:105930001C0080E80E000023FB607B689B6B43F437
:1059400000127B689A637B6C002B11D17B689B6B88
:1059500023F400127B689A637B681B6843F0400263
:105960007B681A607B681B6843F080027B681A6062
:105970007B6803F560631A46002313607B6803F5B8
:10598000006319467B6803F500631A460B681360D1
:105990003B6B012B0CD17B6A002B04D10021786872
:1059A00000F046F908E00121786800F041F903E0D1
:1059B0000321786800F03CF91021786800F0F0F8D5
:1059C000786800F013F97B6803F500631A4600233A
:1059D00013617B6803F500631A46002353617B68FB
:1059E00003F500631A464FF0FF3393617B6803F5BC
:1059F00000631A460023D3610023FB6034E0FB6898
:105A00005A017B68134403F510631B6803F00043DD
:105A1000B3F1004F0AD1FB685A017B68134403F5C8
:105A200010631A464FF09043136008E0FB685A0178
:105A30007B68134403F510631A4600231360FB6868
:105A40005A017B68134403F510631A46002313615F
:105A5000FB685A017B68134403F510631A46FF2361
:105A60009360FB680133FB60FB69FA689A42C6D316
:105A70000023FB6034E0FB685A017B68134403F5A4
:105A800030631B6803F00043B3F1004F0AD1FB6899
:105A90005A017B68134403F530631A464FF0904374
:105AA000136008E0FB685A017B68134403F5306318
:105AB0001A4600231360FB685A017B68134403F500
:105AC00030631A4600231361FB685A017B68134454
:105AD00003F530631A46FF239360FB680133FB60D4
